{
  "contractName": "Seadogs",
  "abi": [
    {
      "inputs": [],
      "stateMutability": "nonpayable",
      "type": "constructor"
    },
    {
      "anonymous": false,
      "inputs": [
        {
          "indexed": true,
          "internalType": "address",
          "name": "owner",
          "type": "address"
        },
        {
          "indexed": true,
          "internalType": "address",
          "name": "approved",
          "type": "address"
        },
        {
          "indexed": true,
          "internalType": "uint256",
          "name": "tokenId",
          "type": "uint256"
        }
      ],
      "name": "Approval",
      "type": "event"
    },
    {
      "anonymous": false,
      "inputs": [
        {
          "indexed": true,
          "internalType": "address",
          "name": "owner",
          "type": "address"
        },
        {
          "indexed": true,
          "internalType": "address",
          "name": "operator",
          "type": "address"
        },
        {
          "indexed": false,
          "internalType": "bool",
          "name": "approved",
          "type": "bool"
        }
      ],
      "name": "ApprovalForAll",
      "type": "event"
    },
    {
      "anonymous": false,
      "inputs": [
        {
          "indexed": true,
          "internalType": "address",
          "name": "by",
          "type": "address"
        },
        {
          "indexed": false,
          "internalType": "uint256",
          "name": "tokenId",
          "type": "uint256"
        }
      ],
      "name": "Mint",
      "type": "event"
    },
    {
      "anonymous": false,
      "inputs": [
        {
          "indexed": true,
          "internalType": "address",
          "name": "previousOwner",
          "type": "address"
        },
        {
          "indexed": true,
          "internalType": "address",
          "name": "newOwner",
          "type": "address"
        }
      ],
      "name": "OwnershipTransferred",
      "type": "event"
    },
    {
      "anonymous": false,
      "inputs": [
        {
          "indexed": true,
          "internalType": "address",
          "name": "from",
          "type": "address"
        },
        {
          "indexed": true,
          "internalType": "address",
          "name": "to",
          "type": "address"
        },
        {
          "indexed": true,
          "internalType": "uint256",
          "name": "tokenId",
          "type": "uint256"
        }
      ],
      "name": "Transfer",
      "type": "event"
    },
    {
      "inputs": [
        {
          "internalType": "address",
          "name": "to",
          "type": "address"
        },
        {
          "internalType": "uint256",
          "name": "tokenId",
          "type": "uint256"
        }
      ],
      "name": "approve",
      "outputs": [],
      "stateMutability": "nonpayable",
      "type": "function"
    },
    {
      "inputs": [
        {
          "internalType": "address",
          "name": "owner",
          "type": "address"
        }
      ],
      "name": "balanceOf",
      "outputs": [
        {
          "internalType": "uint256",
          "name": "",
          "type": "uint256"
        }
      ],
      "stateMutability": "view",
      "type": "function",
      "constant": true
    },
    {
      "inputs": [
        {
          "internalType": "uint256",
          "name": "tokenId",
          "type": "uint256"
        }
      ],
      "name": "getApproved",
      "outputs": [
        {
          "internalType": "address",
          "name": "",
          "type": "address"
        }
      ],
      "stateMutability": "view",
      "type": "function",
      "constant": true
    },
    {
      "inputs": [
        {
          "internalType": "address",
          "name": "owner",
          "type": "address"
        },
        {
          "internalType": "address",
          "name": "operator",
          "type": "address"
        }
      ],
      "name": "isApprovedForAll",
      "outputs": [
        {
          "internalType": "bool",
          "name": "",
          "type": "bool"
        }
      ],
      "stateMutability": "view",
      "type": "function",
      "constant": true
    },
    {
      "inputs": [],
      "name": "name",
      "outputs": [
        {
          "internalType": "string",
          "name": "",
          "type": "string"
        }
      ],
      "stateMutability": "view",
      "type": "function",
      "constant": true
    },
    {
      "inputs": [],
      "name": "owner",
      "outputs": [
        {
          "internalType": "address",
          "name": "",
          "type": "address"
        }
      ],
      "stateMutability": "view",
      "type": "function",
      "constant": true
    },
    {
      "inputs": [
        {
          "internalType": "uint256",
          "name": "tokenId",
          "type": "uint256"
        }
      ],
      "name": "ownerOf",
      "outputs": [
        {
          "internalType": "address",
          "name": "",
          "type": "address"
        }
      ],
      "stateMutability": "view",
      "type": "function",
      "constant": true
    },
    {
      "inputs": [],
      "name": "renounceOwnership",
      "outputs": [],
      "stateMutability": "nonpayable",
      "type": "function"
    },
    {
      "inputs": [
        {
          "internalType": "address",
          "name": "from",
          "type": "address"
        },
        {
          "internalType": "address",
          "name": "to",
          "type": "address"
        },
        {
          "internalType": "uint256",
          "name": "tokenId",
          "type": "uint256"
        }
      ],
      "name": "safeTransferFrom",
      "outputs": [],
      "stateMutability": "nonpayable",
      "type": "function"
    },
    {
      "inputs": [
        {
          "internalType": "address",
          "name": "from",
          "type": "address"
        },
        {
          "internalType": "address",
          "name": "to",
          "type": "address"
        },
        {
          "internalType": "uint256",
          "name": "tokenId",
          "type": "uint256"
        },
        {
          "internalType": "bytes",
          "name": "_data",
          "type": "bytes"
        }
      ],
      "name": "safeTransferFrom",
      "outputs": [],
      "stateMutability": "nonpayable",
      "type": "function"
    },
    {
      "inputs": [
        {
          "internalType": "address",
          "name": "operator",
          "type": "address"
        },
        {
          "internalType": "bool",
          "name": "approved",
          "type": "bool"
        }
      ],
      "name": "setApprovalForAll",
      "outputs": [],
      "stateMutability": "nonpayable",
      "type": "function"
    },
    {
      "inputs": [
        {
          "internalType": "bytes4",
          "name": "interfaceId",
          "type": "bytes4"
        }
      ],
      "name": "supportsInterface",
      "outputs": [
        {
          "internalType": "bool",
          "name": "",
          "type": "bool"
        }
      ],
      "stateMutability": "view",
      "type": "function",
      "constant": true
    },
    {
      "inputs": [],
      "name": "symbol",
      "outputs": [
        {
          "internalType": "string",
          "name": "",
          "type": "string"
        }
      ],
      "stateMutability": "view",
      "type": "function",
      "constant": true
    },
    {
      "inputs": [
        {
          "internalType": "uint256",
          "name": "",
          "type": "uint256"
        }
      ],
      "name": "tokenIdToUri",
      "outputs": [
        {
          "internalType": "string",
          "name": "",
          "type": "string"
        }
      ],
      "stateMutability": "view",
      "type": "function",
      "constant": true
    },
    {
      "inputs": [
        {
          "internalType": "address",
          "name": "from",
          "type": "address"
        },
        {
          "internalType": "address",
          "name": "to",
          "type": "address"
        },
        {
          "internalType": "uint256",
          "name": "tokenId",
          "type": "uint256"
        }
      ],
      "name": "transferFrom",
      "outputs": [],
      "stateMutability": "nonpayable",
      "type": "function"
    },
    {
      "inputs": [
        {
          "internalType": "address",
          "name": "newOwner",
          "type": "address"
        }
      ],
      "name": "transferOwnership",
      "outputs": [],
      "stateMutability": "nonpayable",
      "type": "function"
    },
    {
      "inputs": [],
      "name": "totalSupply",
      "outputs": [
        {
          "internalType": "uint256",
          "name": "",
          "type": "uint256"
        }
      ],
      "stateMutability": "view",
      "type": "function",
      "constant": true
    },
    {
      "inputs": [
        {
          "internalType": "uint256",
          "name": "tokenId",
          "type": "uint256"
        }
      ],
      "name": "burn",
      "outputs": [],
      "stateMutability": "nonpayable",
      "type": "function"
    },
    {
      "inputs": [
        {
          "internalType": "string",
          "name": "tokenUri",
          "type": "string"
        }
      ],
      "name": "mintToken",
      "outputs": [
        {
          "internalType": "uint256",
          "name": "",
          "type": "uint256"
        }
      ],
      "stateMutability": "nonpayable",
      "type": "function"
    },
    {
      "inputs": [
        {
          "internalType": "string",
          "name": "baseURI",
          "type": "string"
        }
      ],
      "name": "_setBaseURI",
      "outputs": [],
      "stateMutability": "nonpayable",
      "type": "function"
    },
    {
      "inputs": [
        {
          "internalType": "uint256",
          "name": "tokenId",
          "type": "uint256"
        }
      ],
      "name": "tokenURI",
      "outputs": [
        {
          "internalType": "string",
          "name": "",
          "type": "string"
        }
      ],
      "stateMutability": "view",
      "type": "function",
      "constant": true
    },
    {
      "inputs": [
        {
          "internalType": "address",
          "name": "user",
          "type": "address"
        }
      ],
      "name": "userTokens",
      "outputs": [
        {
          "internalType": "uint256[]",
          "name": "",
          "type": "uint256[]"
        }
      ],
      "stateMutability": "view",
      "type": "function",
      "constant": true
    }
  ],
  "bytecode": "0x60806040523480156200001157600080fd5b506040518060400160405280600781526020017f536561446f6773000000000000000000000000000000000000000000000000008152506040518060400160405280600781526020017f534541444f475300000000000000000000000000000000000000000000000000815250816000908051906020019062000096929190620002c1565b508060019080519060200190620000af929190620002c1565b505050620000d2620000c66200011e60201b60201c565b6200012660201b60201c565b620001186040518060400160405280600781526020017f697066733a2f2f00000000000000000000000000000000000000000000000000815250620001ec60201b60201c565b62000459565b600033905090565b6000600660009054906101000a900473ffffffffffffffffffffffffffffffffffffffff16905081600660006101000a81548173ffffffffffffffffffffffffffffffffffffffff021916908373ffffffffffffffffffffffffffffffffffffffff1602179055508173ffffffffffffffffffffffffffffffffffffffff168173ffffffffffffffffffffffffffffffffffffffff167f8be0079c531659141344cd1fd0a4f28419497f9722a3daafe3b4186f6b6457e060405160405180910390a35050565b620001fc6200011e60201b60201c565b73ffffffffffffffffffffffffffffffffffffffff16620002226200029760201b60201c565b73ffffffffffffffffffffffffffffffffffffffff16146200027b576040517f08c379a00000000000000000000000000000000000000000000000000000000081526004016200027290620003d2565b60405180910390fd5b806009908051906020019062000293929190620002c1565b5050565b6000600660009054906101000a900473ffffffffffffffffffffffffffffffffffffffff16905090565b828054620002cf9062000423565b90600052602060002090601f016020900481019282620002f357600085556200033f565b82601f106200030e57805160ff19168380011785556200033f565b828001600101855582156200033f579182015b828111156200033e57825182559160200191906001019062000321565b5b5090506200034e919062000352565b5090565b5b808211156200036d57600081600090555060010162000353565b5090565b600082825260208201905092915050565b7f4f776e61626c653a2063616c6c6572206973206e6f7420746865206f776e6572600082015250565b6000620003ba60208362000371565b9150620003c78262000382565b602082019050919050565b60006020820190508181036000830152620003ed81620003ab565b9050919050565b7f4e487b7100000000000000000000000000000000000000000000000000000000600052602260045260246000fd5b600060028204905060018216806200043c57607f821691505b60208210811415620004535762000452620003f4565b5b50919050565b61315e80620004696000396000f3fe608060405234801561001057600080fd5b50600436106101425760003560e01c80636352211e116100b8578063a22cb4651161007c578063a22cb46514610375578063b88d4fde14610391578063c87b56dd146103ad578063e985e9c5146103dd578063ed498fa81461040d578063f2fde38b1461043d57610142565b80636352211e146102cf57806370a08231146102ff578063715018a61461032f5780638da5cb5b1461033957806395d89b411461035757610142565b806318160ddd1161010a57806318160ddd1461021157806323b872dd1461022f57806331b5b9071461024b57806333eba49a1461026757806342842e0e1461029757806342966c68146102b357610142565b806301ffc9a71461014757806306fdde0314610177578063081812fc14610195578063095ea7b3146101c5578063119d209a146101e1575b600080fd5b610161600480360381019061015c9190611e47565b610459565b60405161016e9190611e8f565b60405180910390f35b61017f61053b565b60405161018c9190611f43565b60405180910390f35b6101af60048036038101906101aa9190611f9b565b6105cd565b6040516101bc9190612009565b60405180910390f35b6101df60048036038101906101da9190612050565b610652565b005b6101fb60048036038101906101f69190611f9b565b61076a565b6040516102089190611f43565b60405180910390f35b61021961080a565b604051610226919061209f565b60405180910390f35b610249600480360381019061024491906120ba565b610827565b005b61026560048036038101906102609190612242565b610887565b005b610281600480360381019061027c9190612242565b61091d565b60405161028e919061209f565b60405180910390f35b6102b160048036038101906102ac91906120ba565b610a3c565b005b6102cd60048036038101906102c89190611f9b565b610a5c565b005b6102e960048036038101906102e49190611f9b565b610a68565b6040516102f69190612009565b60405180910390f35b6103196004803603810190610314919061228b565b610b1a565b604051610326919061209f565b60405180910390f35b610337610bd2565b005b610341610c5a565b60405161034e9190612009565b60405180910390f35b61035f610c84565b60405161036c9190611f43565b60405180910390f35b61038f600480360381019061038a91906122e4565b610d16565b005b6103ab60048036038101906103a691906123c5565b610d2c565b005b6103c760048036038101906103c29190611f9b565b610d8e565b6040516103d49190611f43565b60405180910390f35b6103f760048036038101906103f29190612448565b610e40565b6040516104049190611e8f565b60405180910390f35b6104276004803603810190610422919061228b565b610ed4565b6040516104349190612546565b60405180910390f35b6104576004803603810190610452919061228b565b610fc4565b005b60007f80ac58cd000000000000000000000000000000000000000000000000000000007bffffffffffffffffffffffffffffffffffffffffffffffffffffffff1916827bffffffffffffffffffffffffffffffffffffffffffffffffffffffff1916148061052457507f5b5e139f000000000000000000000000000000000000000000000000000000007bffffffffffffffffffffffffffffffffffffffffffffffffffffffff1916827bffffffffffffffffffffffffffffffffffffffffffffffffffffffff1916145b806105345750610533826110bc565b5b9050919050565b60606000805461054a90612597565b80601f016020809104026020016040519081016040528092919081815260200182805461057690612597565b80156105c35780601f10610598576101008083540402835291602001916105c3565b820191906000526020600020905b8154815290600101906020018083116105a657829003601f168201915b5050505050905090565b60006105d882611126565b610617576040517f08c379a000000000000000000000000000000000000000000000000000000000815260040161060e9061263b565b60405180910390fd5b6004600083815260200190815260200160002060009054906101000a900473ffffffffffffffffffffffffffffffffffffffff169050919050565b600061065d82610a68565b90508073ffffffffffffffffffffffffffffffffffffffff168373ffffffffffffffffffffffffffffffffffffffff1614156106ce576040517f08c379a00000000000000000000000000000000000000000000000000000000081526004016106c5906126cd565b60405180910390fd5b8073ffffffffffffffffffffffffffffffffffffffff166106ed611192565b73ffffffffffffffffffffffffffffffffffffffff16148061071c575061071b81610716611192565b610e40565b5b61075b576040517f08c379a00000000000000000000000000000000000000000000000000000000081526004016107529061275f565b60405180910390fd5b610765838361119a565b505050565b6008602052806000526040600020600091509050805461078990612597565b80601f01602080910402602001604051908101604052809291908181526020018280546107b590612597565b80156108025780601f106107d757610100808354040283529160200191610802565b820191906000526020600020905b8154815290600101906020018083116107e557829003601f168201915b505050505081565b600060016108186007611253565b61082291906127ae565b905090565b610838610832611192565b82611261565b610877576040517f08c379a000000000000000000000000000000000000000000000000000000000815260040161086e90612854565b60405180910390fd5b61088283838361133f565b505050565b61088f611192565b73ffffffffffffffffffffffffffffffffffffffff166108ad610c5a565b73ffffffffffffffffffffffffffffffffffffffff1614610903576040517f08c379a00000000000000000000000000000000000000000000000000000000081526004016108fa906128c0565b60405180910390fd5b8060099080519060200190610919929190611d38565b5050565b6000610927611192565b73ffffffffffffffffffffffffffffffffffffffff16610945610c5a565b73ffffffffffffffffffffffffffffffffffffffff161461099b576040517f08c379a0000000000000000000000000000000000000000000000000000000008152600401610992906128c0565b60405180910390fd5b60006109a76007611253565b90506109b3338261159b565b826008600083815260200190815260200160002090805190602001906109da929190611d38565b506109e560076115b9565b3373ffffffffffffffffffffffffffffffffffffffff167f0f6798a560793a54c3bcfe86a93cde1e73087d944c0ea20544137d412139688582604051610a2b919061209f565b60405180910390a280915050919050565b610a5783838360405180602001604052806000815250610d2c565b505050565b610a65816115cf565b50565b6000806002600084815260200190815260200160002060009054906101000a900473ffffffffffffffffffffffffffffffffffffffff169050600073ffffffffffffffffffffffffffffffffffffffff168173ffffffffffffffffffffffffffffffffffffffff161415610b11576040517f08c379a0000000000000000000000000000000000000000000000000000000008152600401610b0890612952565b60405180910390fd5b80915050919050565b60008073ffffffffffffffffffffffffffffffffffffffff168273ffffffffffffffffffffffffffffffffffffffff161415610b8b576040517f08c379a0000000000000000000000000000000000000000000000000000000008152600401610b82906129e4565b60405180910390fd5b600360008373ffffffffffffffffffffffffffffffffffffffff1673ffffffffffffffffffffffffffffffffffffffff168152602001908152602001600020549050919050565b610bda611192565b73ffffffffffffffffffffffffffffffffffffffff16610bf8610c5a565b73ffffffffffffffffffffffffffffffffffffffff1614610c4e576040517f08c379a0000000000000000000000000000000000000000000000000000000008152600401610c45906128c0565b60405180910390fd5b610c5860006116e0565b565b6000600660009054906101000a900473ffffffffffffffffffffffffffffffffffffffff16905090565b606060018054610c9390612597565b80601f0160208091040260200160405190810160405280929190818152602001828054610cbf90612597565b8015610d0c5780601f10610ce157610100808354040283529160200191610d0c565b820191906000526020600020905b815481529060010190602001808311610cef57829003601f168201915b5050505050905090565b610d28610d21611192565b83836117a6565b5050565b610d3d610d37611192565b83611261565b610d7c576040517f08c379a0000000000000000000000000000000000000000000000000000000008152600401610d7390612854565b60405180910390fd5b610d8884848484611913565b50505050565b6060610d9982611126565b610dd8576040517f08c379a0000000000000000000000000000000000000000000000000000000008152600401610dcf90612a76565b60405180910390fd5b600060098054610de790612597565b905011610e035760405180602001604052806000815250610e39565b600960086000848152602001908152602001600020604051602001610e29929190612b35565b6040516020818303038152906040525b9050919050565b6000600560008473ffffffffffffffffffffffffffffffffffffffff1673ffffffffffffffffffffffffffffffffffffffff16815260200190815260200160002060008373ffffffffffffffffffffffffffffffffffffffff1673ffffffffffffffffffffffffffffffffffffffff16815260200190815260200160002060009054906101000a900460ff16905092915050565b60606000610ee061080a565b67ffffffffffffffff811115610ef957610ef8612117565b5b604051908082528060200260200182016040528015610f275781602001602082028036833780820191505090505b5090506000805b610f3661080a565b811015610fb9578473ffffffffffffffffffffffffffffffffffffffff16610f5d82610a68565b73ffffffffffffffffffffffffffffffffffffffff161415610fa65780838380610f8690612b59565b945081518110610f9957610f98612ba2565b5b6020026020010181815250505b8080610fb190612b59565b915050610f2e565b829350505050919050565b610fcc611192565b73ffffffffffffffffffffffffffffffffffffffff16610fea610c5a565b73ffffffffffffffffffffffffffffffffffffffff1614611040576040517f08c379a0000000000000000000000000000000000000000000000000000000008152600401611037906128c0565b60405180910390fd5b600073ffffffffffffffffffffffffffffffffffffffff168173ffffffffffffffffffffffffffffffffffffffff1614156110b0576040517f08c379a00000000000000000000000000000000000000000000000000000000081526004016110a790612c43565b60405180910390fd5b6110b9816116e0565b50565b60007f01ffc9a7000000000000000000000000000000000000000000000000000000007bffffffffffffffffffffffffffffffffffffffffffffffffffffffff1916827bffffffffffffffffffffffffffffffffffffffffffffffffffffffff1916149050919050565b60008073ffffffffffffffffffffffffffffffffffffffff166002600084815260200190815260200160002060009054906101000a900473ffffffffffffffffffffffffffffffffffffffff1673ffffffffffffffffffffffffffffffffffffffff1614159050919050565b600033905090565b816004600083815260200190815260200160002060006101000a81548173ffffffffffffffffffffffffffffffffffffffff021916908373ffffffffffffffffffffffffffffffffffffffff160217905550808273ffffffffffffffffffffffffffffffffffffffff1661120d83610a68565b73ffffffffffffffffffffffffffffffffffffffff167f8c5be1e5ebec7d5bd14f71427d1e84f3dd0314c0f7b2291e5b200ac8c7c3b92560405160405180910390a45050565b600081600001549050919050565b600061126c82611126565b6112ab576040517f08c379a00000000000000000000000000000000000000000000000000000000081526004016112a290612cd5565b60405180910390fd5b60006112b683610a68565b90508073ffffffffffffffffffffffffffffffffffffffff168473ffffffffffffffffffffffffffffffffffffffff16148061132557508373ffffffffffffffffffffffffffffffffffffffff1661130d846105cd565b73ffffffffffffffffffffffffffffffffffffffff16145b8061133657506113358185610e40565b5b91505092915050565b8273ffffffffffffffffffffffffffffffffffffffff1661135f82610a68565b73ffffffffffffffffffffffffffffffffffffffff16146113b5576040517f08c379a00000000000000000000000000000000000000000000000000000000081526004016113ac90612d67565b60405180910390fd5b600073ffffffffffffffffffffffffffffffffffffffff168273ffffffffffffffffffffffffffffffffffffffff161415611425576040517f08c379a000000000000000000000000000000000000000000000000000000000815260040161141c90612df9565b60405180910390fd5b61143083838361196f565b61143b60008261119a565b6001600360008573ffffffffffffffffffffffffffffffffffffffff1673ffffffffffffffffffffffffffffffffffffffff168152602001908152602001600020600082825461148b91906127ae565b925050819055506001600360008473ffffffffffffffffffffffffffffffffffffffff1673ffffffffffffffffffffffffffffffffffffffff16815260200190815260200160002060008282546114e29190612e19565b92505081905550816002600083815260200190815260200160002060006101000a81548173ffffffffffffffffffffffffffffffffffffffff021916908373ffffffffffffffffffffffffffffffffffffffff160217905550808273ffffffffffffffffffffffffffffffffffffffff168473ffffffffffffffffffffffffffffffffffffffff167fddf252ad1be2c89b69c2b068fc378daa952ba7f163c4a11628f55a4df523b3ef60405160405180910390a4505050565b6115b5828260405180602001604052806000815250611974565b5050565b6001816000016000828254019250508190555050565b60006115da82610a68565b90506115e88160008461196f565b6115f360008361119a565b6001600360008373ffffffffffffffffffffffffffffffffffffffff1673ffffffffffffffffffffffffffffffffffffffff168152602001908152602001600020600082825461164391906127ae565b925050819055506002600083815260200190815260200160002060006101000a81549073ffffffffffffffffffffffffffffffffffffffff021916905581600073ffffffffffffffffffffffffffffffffffffffff168273ffffffffffffffffffffffffffffffffffffffff167fddf252ad1be2c89b69c2b068fc378daa952ba7f163c4a11628f55a4df523b3ef60405160405180910390a45050565b6000600660009054906101000a900473ffffffffffffffffffffffffffffffffffffffff16905081600660006101000a81548173ffffffffffffffffffffffffffffffffffffffff021916908373ffffffffffffffffffffffffffffffffffffffff1602179055508173ffffffffffffffffffffffffffffffffffffffff168173ffffffffffffffffffffffffffffffffffffffff167f8be0079c531659141344cd1fd0a4f28419497f9722a3daafe3b4186f6b6457e060405160405180910390a35050565b8173ffffffffffffffffffffffffffffffffffffffff168373ffffffffffffffffffffffffffffffffffffffff161415611815576040517f08c379a000000000000000000000000000000000000000000000000000000000815260040161180c90612ebb565b60405180910390fd5b80600560008573ffffffffffffffffffffffffffffffffffffffff1673ffffffffffffffffffffffffffffffffffffffff16815260200190815260200160002060008473ffffffffffffffffffffffffffffffffffffffff1673ffffffffffffffffffffffffffffffffffffffff16815260200190815260200160002060006101000a81548160ff0219169083151502179055508173ffffffffffffffffffffffffffffffffffffffff168373ffffffffffffffffffffffffffffffffffffffff167f17307eab39ab6107e8899845ad3d59bd9653f200f220920489ca2b5937696c31836040516119069190611e8f565b60405180910390a3505050565b61191e84848461133f565b61192a848484846119cf565b611969576040517f08c379a000000000000000000000000000000000000000000000000000000000815260040161196090612f4d565b60405180910390fd5b50505050565b505050565b61197e8383611b57565b61198b60008484846119cf565b6119ca576040517f08c379a00000000000000000000000000000000000000000000000000000000081526004016119c190612f4d565b60405180910390fd5b505050565b60006119f08473ffffffffffffffffffffffffffffffffffffffff16611d25565b15611b4a578373ffffffffffffffffffffffffffffffffffffffff1663150b7a02611a19611192565b8786866040518563ffffffff1660e01b8152600401611a3b9493929190612fc2565b6020604051808303816000875af1925050508015611a7757506040513d601f19601f82011682018060405250810190611a749190613023565b60015b611afa573d8060008114611aa7576040519150601f19603f3d011682016040523d82523d6000602084013e611aac565b606091505b50600081511415611af2576040517f08c379a0000000000000000000000000000000000000000000000000000000008152600401611ae990612f4d565b60405180910390fd5b805181602001fd5b63150b7a0260e01b7bffffffffffffffffffffffffffffffffffffffffffffffffffffffff1916817bffffffffffffffffffffffffffffffffffffffffffffffffffffffff191614915050611b4f565b600190505b949350505050565b600073ffffffffffffffffffffffffffffffffffffffff168273ffffffffffffffffffffffffffffffffffffffff161415611bc7576040517f08c379a0000000000000000000000000000000000000000000000000000000008152600401611bbe9061309c565b60405180910390fd5b611bd081611126565b15611c10576040517f08c379a0000000000000000000000000000000000000000000000000000000008152600401611c0790613108565b60405180910390fd5b611c1c6000838361196f565b6001600360008473ffffffffffffffffffffffffffffffffffffffff1673ffffffffffffffffffffffffffffffffffffffff1681526020019081526020016000206000828254611c6c9190612e19565b92505081905550816002600083815260200190815260200160002060006101000a81548173ffffffffffffffffffffffffffffffffffffffff021916908373ffffffffffffffffffffffffffffffffffffffff160217905550808273ffffffffffffffffffffffffffffffffffffffff16600073ffffffffffffffffffffffffffffffffffffffff167fddf252ad1be2c89b69c2b068fc378daa952ba7f163c4a11628f55a4df523b3ef60405160405180910390a45050565b600080823b905060008111915050919050565b828054611d4490612597565b90600052602060002090601f016020900481019282611d665760008555611dad565b82601f10611d7f57805160ff1916838001178555611dad565b82800160010185558215611dad579182015b82811115611dac578251825591602001919060010190611d91565b5b509050611dba9190611dbe565b5090565b5b80821115611dd7576000816000905550600101611dbf565b5090565b6000604051905090565b600080fd5b600080fd5b60007fffffffff0000000000000000000000000000000000000000000000000000000082169050919050565b611e2481611def565b8114611e2f57600080fd5b50565b600081359050611e4181611e1b565b92915050565b600060208284031215611e5d57611e5c611de5565b5b6000611e6b84828501611e32565b91505092915050565b60008115159050919050565b611e8981611e74565b82525050565b6000602082019050611ea46000830184611e80565b92915050565b600081519050919050565b600082825260208201905092915050565b60005b83811015611ee4578082015181840152602081019050611ec9565b83811115611ef3576000848401525b50505050565b6000601f19601f8301169050919050565b6000611f1582611eaa565b611f1f8185611eb5565b9350611f2f818560208601611ec6565b611f3881611ef9565b840191505092915050565b60006020820190508181036000830152611f5d8184611f0a565b905092915050565b6000819050919050565b611f7881611f65565b8114611f8357600080fd5b50565b600081359050611f9581611f6f565b92915050565b600060208284031215611fb157611fb0611de5565b5b6000611fbf84828501611f86565b91505092915050565b600073ffffffffffffffffffffffffffffffffffffffff82169050919050565b6000611ff382611fc8565b9050919050565b61200381611fe8565b82525050565b600060208201905061201e6000830184611ffa565b92915050565b61202d81611fe8565b811461203857600080fd5b50565b60008135905061204a81612024565b92915050565b6000806040838503121561206757612066611de5565b5b60006120758582860161203b565b925050602061208685828601611f86565b9150509250929050565b61209981611f65565b82525050565b60006020820190506120b46000830184612090565b92915050565b6000806000606084860312156120d3576120d2611de5565b5b60006120e18682870161203b565b93505060206120f28682870161203b565b925050604061210386828701611f86565b9150509250925092565b600080fd5b600080fd5b7f4e487b7100000000000000000000000000000000000000000000000000000000600052604160045260246000fd5b61214f82611ef9565b810181811067ffffffffffffffff8211171561216e5761216d612117565b5b80604052505050565b6000612181611ddb565b905061218d8282612146565b919050565b600067ffffffffffffffff8211156121ad576121ac612117565b5b6121b682611ef9565b9050602081019050919050565b82818337600083830152505050565b60006121e56121e084612192565b612177565b90508281526020810184848401111561220157612200612112565b5b61220c8482856121c3565b509392505050565b600082601f8301126122295761222861210d565b5b81356122398482602086016121d2565b91505092915050565b60006020828403121561225857612257611de5565b5b600082013567ffffffffffffffff81111561227657612275611dea565b5b61228284828501612214565b91505092915050565b6000602082840312156122a1576122a0611de5565b5b60006122af8482850161203b565b91505092915050565b6122c181611e74565b81146122cc57600080fd5b50565b6000813590506122de816122b8565b92915050565b600080604083850312156122fb576122fa611de5565b5b60006123098582860161203b565b925050602061231a858286016122cf565b9150509250929050565b600067ffffffffffffffff82111561233f5761233e612117565b5b61234882611ef9565b9050602081019050919050565b600061236861236384612324565b612177565b90508281526020810184848401111561238457612383612112565b5b61238f8482856121c3565b509392505050565b600082601f8301126123ac576123ab61210d565b5b81356123bc848260208601612355565b91505092915050565b600080600080608085870312156123df576123de611de5565b5b60006123ed8782880161203b565b94505060206123fe8782880161203b565b935050604061240f87828801611f86565b925050606085013567ffffffffffffffff8111156124305761242f611dea565b5b61243c87828801612397565b91505092959194509250565b6000806040838503121561245f5761245e611de5565b5b600061246d8582860161203b565b925050602061247e8582860161203b565b9150509250929050565b600081519050919050565b600082825260208201905092915050565b6000819050602082019050919050565b6124bd81611f65565b82525050565b60006124cf83836124b4565b60208301905092915050565b6000602082019050919050565b60006124f382612488565b6124fd8185612493565b9350612508836124a4565b8060005b8381101561253957815161252088826124c3565b975061252b836124db565b92505060018101905061250c565b5085935050505092915050565b6000602082019050818103600083015261256081846124e8565b905092915050565b7f4e487b7100000000000000000000000000000000000000000000000000000000600052602260045260246000fd5b600060028204905060018216806125af57607f821691505b602082108114156125c3576125c2612568565b5b50919050565b7f4552433732313a20617070726f76656420717565727920666f72206e6f6e657860008201527f697374656e7420746f6b656e0000000000000000000000000000000000000000602082015250565b6000612625602c83611eb5565b9150612630826125c9565b604082019050919050565b6000602082019050818103600083015261265481612618565b9050919050565b7f4552433732313a20617070726f76616c20746f2063757272656e74206f776e6560008201527f7200000000000000000000000000000000000000000000000000000000000000602082015250565b60006126b7602183611eb5565b91506126c28261265b565b604082019050919050565b600060208201905081810360008301526126e6816126aa565b9050919050565b7f4552433732313a20617070726f76652063616c6c6572206973206e6f74206f7760008201527f6e6572206e6f7220617070726f76656420666f7220616c6c0000000000000000602082015250565b6000612749603883611eb5565b9150612754826126ed565b604082019050919050565b600060208201905081810360008301526127788161273c565b9050919050565b7f4e487b7100000000000000000000000000000000000000000000000000000000600052601160045260246000fd5b60006127b982611f65565b91506127c483611f65565b9250828210156127d7576127d661277f565b5b828203905092915050565b7f4552433732313a207472616e736665722063616c6c6572206973206e6f74206f60008201527f776e6572206e6f7220617070726f766564000000000000000000000000000000602082015250565b600061283e603183611eb5565b9150612849826127e2565b604082019050919050565b6000602082019050818103600083015261286d81612831565b9050919050565b7f4f776e61626c653a2063616c6c6572206973206e6f7420746865206f776e6572600082015250565b60006128aa602083611eb5565b91506128b582612874565b602082019050919050565b600060208201905081810360008301526128d98161289d565b9050919050565b7f4552433732313a206f776e657220717565727920666f72206e6f6e657869737460008201527f656e7420746f6b656e0000000000000000000000000000000000000000000000602082015250565b600061293c602983611eb5565b9150612947826128e0565b604082019050919050565b6000602082019050818103600083015261296b8161292f565b9050919050565b7f4552433732313a2062616c616e636520717565727920666f7220746865207a6560008201527f726f206164647265737300000000000000000000000000000000000000000000602082015250565b60006129ce602a83611eb5565b91506129d982612972565b604082019050919050565b600060208201905081810360008301526129fd816129c1565b9050919050565b7f4552433732314d657461646174613a2055524920717565727920666f72206e6f60008201527f6e6578697374656e7420746f6b656e0000000000000000000000000000000000602082015250565b6000612a60602f83611eb5565b9150612a6b82612a04565b604082019050919050565b60006020820190508181036000830152612a8f81612a53565b9050919050565b600081905092915050565b60008190508160005260206000209050919050565b60008154612ac381612597565b612acd8186612a96565b94506001821660008114612ae85760018114612af957612b2c565b60ff19831686528186019350612b2c565b612b0285612aa1565b60005b83811015612b2457815481890152600182019150602081019050612b05565b838801955050505b50505092915050565b6000612b418285612ab6565b9150612b4d8284612ab6565b91508190509392505050565b6000612b6482611f65565b91507fffffffffffffffffffffffffffffffffffffffffffffffffffffffffffffffff821415612b9757612b9661277f565b5b600182019050919050565b7f4e487b7100000000000000000000000000000000000000000000000000000000600052603260045260246000fd5b7f4f776e61626c653a206e6577206f776e657220697320746865207a65726f206160008201527f6464726573730000000000000000000000000000000000000000000000000000602082015250565b6000612c2d602683611eb5565b9150612c3882612bd1565b604082019050919050565b60006020820190508181036000830152612c5c81612c20565b9050919050565b7f4552433732313a206f70657261746f7220717565727920666f72206e6f6e657860008201527f697374656e7420746f6b656e0000000000000000000000000000000000000000602082015250565b6000612cbf602c83611eb5565b9150612cca82612c63565b604082019050919050565b60006020820190508181036000830152612cee81612cb2565b9050919050565b7f4552433732313a207472616e73666572206f6620746f6b656e2074686174206960008201527f73206e6f74206f776e0000000000000000000000000000000000000000000000602082015250565b6000612d51602983611eb5565b9150612d5c82612cf5565b604082019050919050565b60006020820190508181036000830152612d8081612d44565b9050919050565b7f4552433732313a207472616e7366657220746f20746865207a65726f2061646460008201527f7265737300000000000000000000000000000000000000000000000000000000602082015250565b6000612de3602483611eb5565b9150612dee82612d87565b604082019050919050565b60006020820190508181036000830152612e1281612dd6565b9050919050565b6000612e2482611f65565b9150612e2f83611f65565b9250827fffffffffffffffffffffffffffffffffffffffffffffffffffffffffffffffff03821115612e6457612e6361277f565b5b828201905092915050565b7f4552433732313a20617070726f766520746f2063616c6c657200000000000000600082015250565b6000612ea5601983611eb5565b9150612eb082612e6f565b602082019050919050565b60006020820190508181036000830152612ed481612e98565b9050919050565b7f4552433732313a207472616e7366657220746f206e6f6e20455243373231526560008201527f63656976657220696d706c656d656e7465720000000000000000000000000000602082015250565b6000612f37603283611eb5565b9150612f4282612edb565b604082019050919050565b60006020820190508181036000830152612f6681612f2a565b9050919050565b600081519050919050565b600082825260208201905092915050565b6000612f9482612f6d565b612f9e8185612f78565b9350612fae818560208601611ec6565b612fb781611ef9565b840191505092915050565b6000608082019050612fd76000830187611ffa565b612fe46020830186611ffa565b612ff16040830185612090565b81810360608301526130038184612f89565b905095945050505050565b60008151905061301d81611e1b565b92915050565b60006020828403121561303957613038611de5565b5b60006130478482850161300e565b91505092915050565b7f4552433732313a206d696e7420746f20746865207a65726f2061646472657373600082015250565b6000613086602083611eb5565b915061309182613050565b602082019050919050565b600060208201905081810360008301526130b581613079565b9050919050565b7f4552433732313a20746f6b656e20616c7265616479206d696e74656400000000600082015250565b60006130f2601c83611eb5565b91506130fd826130bc565b602082019050919050565b60006020820190508181036000830152613121816130e5565b905091905056fea2646970667358221220bdeadb1ebdfdcef725a74bd97c6193ec47fe321479f906435254a39f4ca43c3964736f6c634300080a0033",
  "immutableReferences": {},
  "source": "// SPDX-License-Identifier: MIT\npragma solidity ^0.8.10;\nimport \"@openzeppelin/contracts/token/ERC721/ERC721.sol\";\nimport \"@openzeppelin/contracts/utils/Counters.sol\";\nimport \"@openzeppelin/contracts/access/Ownable.sol\";\n\ncontract Seadogs is ERC721, Ownable {\n    using Counters for Counters.Counter;\n    Counters.Counter private _nextTokenId;\n\n    mapping (uint256 => string) public tokenIdToUri;\n\n    string _baseTokenURI;\n\n     event Mint(address indexed by,  uint256 tokenId);\n\n    constructor() ERC721(\"SeaDogs\", \"SEADOGS\") {\n        _setBaseURI(\"ipfs://\");\n    }\n\n    function totalSupply() public view returns (uint256) {\n        return _nextTokenId.current() - 1;\n    }\n\n    function burn(uint256 tokenId) public {\n        _burn(tokenId);\n    }\n\n    /*\n    * Mint allowed only for the owner\n    */\n    function mintToken(string memory tokenUri) public onlyOwner() returns (uint256) {\n        uint256 tokenId =  _nextTokenId.current();\n\n        _safeMint(msg.sender, tokenId);\n\n        tokenIdToUri[tokenId] = tokenUri;\n        _nextTokenId.increment();\n\n        emit Mint(msg.sender, tokenId);\n\n        return tokenId;\n    }\n\n    function _setBaseURI(string  memory baseURI) public onlyOwner() {\n        _baseTokenURI = baseURI;\n    }\n\n    function tokenURI(uint256 tokenId) public view override returns (string memory) {\n        require(_exists(tokenId), \"ERC721Metadata: URI query for nonexistent token\");\n        return bytes(_baseTokenURI).length > 0 ? string(abi.encodePacked(_baseTokenURI, tokenIdToUri[tokenId])) : \"\";\n    }\n\n    function userTokens(address user) public view returns (uint256[] memory) {\n        uint256[] memory tokens = new uint[](totalSupply());\n        uint256 idx = 0;\n        uint256 tokenId = 0;\n        while (tokenId < totalSupply()) {\n            if (ownerOf(tokenId) == user) {\n                tokens[idx++] = tokenId;\n            }\n            tokenId++;\n        }\n        return tokens;\n    }\n}\n",
  "sourcePath": "/Users/timouralmazov/work/crypto-projects/seadogslab/smart-contracts/contracts/Seadogs.sol",
  "compiler": {
    "name": "solc",
    "version": "0.8.10+commit.fc410830.Emscripten.clang"
  },
  "schemaVersion": "3.4.3",
  "updatedAt": "2022-02-07T22:34:25.587Z",
  "networkType": "ethereum",
  "devdoc": {
    "kind": "dev",
    "methods": {
      "approve(address,uint256)": {
        "details": "See {IERC721-approve}."
      },
      "balanceOf(address)": {
        "details": "See {IERC721-balanceOf}."
      },
      "getApproved(uint256)": {
        "details": "See {IERC721-getApproved}."
      },
      "isApprovedForAll(address,address)": {
        "details": "See {IERC721-isApprovedForAll}."
      },
      "name()": {
        "details": "See {IERC721Metadata-name}."
      },
      "owner()": {
        "details": "Returns the address of the current owner."
      },
      "ownerOf(uint256)": {
        "details": "See {IERC721-ownerOf}."
      },
      "renounceOwnership()": {
        "details": "Leaves the contract without owner. It will not be possible to call `onlyOwner` functions anymore. Can only be called by the current owner. NOTE: Renouncing ownership will leave the contract without an owner, thereby removing any functionality that is only available to the owner."
      },
      "safeTransferFrom(address,address,uint256)": {
        "details": "See {IERC721-safeTransferFrom}."
      },
      "safeTransferFrom(address,address,uint256,bytes)": {
        "details": "See {IERC721-safeTransferFrom}."
      },
      "setApprovalForAll(address,bool)": {
        "details": "See {IERC721-setApprovalForAll}."
      },
      "supportsInterface(bytes4)": {
        "details": "See {IERC165-supportsInterface}."
      },
      "symbol()": {
        "details": "See {IERC721Metadata-symbol}."
      },
      "tokenURI(uint256)": {
        "details": "See {IERC721Metadata-tokenURI}."
      },
      "transferFrom(address,address,uint256)": {
        "details": "See {IERC721-transferFrom}."
      },
      "transferOwnership(address)": {
        "details": "Transfers ownership of the contract to a new account (`newOwner`). Can only be called by the current owner."
      }
    },
    "version": 1
  },
  "userdoc": {
    "kind": "user",
    "methods": {},
    "version": 1
  }
}