{
  "contractName": "Seadogs",
  "abi": [
    {
      "inputs": [],
      "stateMutability": "nonpayable",
      "type": "constructor"
    },
    {
      "anonymous": false,
      "inputs": [
        {
          "indexed": true,
          "internalType": "address",
          "name": "owner",
          "type": "address"
        },
        {
          "indexed": true,
          "internalType": "address",
          "name": "approved",
          "type": "address"
        },
        {
          "indexed": true,
          "internalType": "uint256",
          "name": "tokenId",
          "type": "uint256"
        }
      ],
      "name": "Approval",
      "type": "event"
    },
    {
      "anonymous": false,
      "inputs": [
        {
          "indexed": true,
          "internalType": "address",
          "name": "owner",
          "type": "address"
        },
        {
          "indexed": true,
          "internalType": "address",
          "name": "operator",
          "type": "address"
        },
        {
          "indexed": false,
          "internalType": "bool",
          "name": "approved",
          "type": "bool"
        }
      ],
      "name": "ApprovalForAll",
      "type": "event"
    },
    {
      "anonymous": false,
      "inputs": [
        {
          "indexed": true,
          "internalType": "address",
          "name": "by",
          "type": "address"
        },
        {
          "indexed": false,
          "internalType": "uint256",
          "name": "tokenId",
          "type": "uint256"
        }
      ],
      "name": "Mint",
      "type": "event"
    },
    {
      "anonymous": false,
      "inputs": [
        {
          "indexed": true,
          "internalType": "address",
          "name": "previousOwner",
          "type": "address"
        },
        {
          "indexed": true,
          "internalType": "address",
          "name": "newOwner",
          "type": "address"
        }
      ],
      "name": "OwnershipTransferred",
      "type": "event"
    },
    {
      "anonymous": false,
      "inputs": [
        {
          "indexed": true,
          "internalType": "address",
          "name": "from",
          "type": "address"
        },
        {
          "indexed": true,
          "internalType": "address",
          "name": "to",
          "type": "address"
        },
        {
          "indexed": true,
          "internalType": "uint256",
          "name": "tokenId",
          "type": "uint256"
        }
      ],
      "name": "Transfer",
      "type": "event"
    },
    {
      "inputs": [
        {
          "internalType": "address",
          "name": "to",
          "type": "address"
        },
        {
          "internalType": "uint256",
          "name": "tokenId",
          "type": "uint256"
        }
      ],
      "name": "approve",
      "outputs": [],
      "stateMutability": "nonpayable",
      "type": "function"
    },
    {
      "inputs": [
        {
          "internalType": "address",
          "name": "owner",
          "type": "address"
        }
      ],
      "name": "balanceOf",
      "outputs": [
        {
          "internalType": "uint256",
          "name": "",
          "type": "uint256"
        }
      ],
      "stateMutability": "view",
      "type": "function",
      "constant": true
    },
    {
      "inputs": [
        {
          "internalType": "uint256",
          "name": "tokenId",
          "type": "uint256"
        }
      ],
      "name": "getApproved",
      "outputs": [
        {
          "internalType": "address",
          "name": "",
          "type": "address"
        }
      ],
      "stateMutability": "view",
      "type": "function",
      "constant": true
    },
    {
      "inputs": [
        {
          "internalType": "address",
          "name": "owner",
          "type": "address"
        },
        {
          "internalType": "address",
          "name": "operator",
          "type": "address"
        }
      ],
      "name": "isApprovedForAll",
      "outputs": [
        {
          "internalType": "bool",
          "name": "",
          "type": "bool"
        }
      ],
      "stateMutability": "view",
      "type": "function",
      "constant": true
    },
    {
      "inputs": [],
      "name": "name",
      "outputs": [
        {
          "internalType": "string",
          "name": "",
          "type": "string"
        }
      ],
      "stateMutability": "view",
      "type": "function",
      "constant": true
    },
    {
      "inputs": [],
      "name": "owner",
      "outputs": [
        {
          "internalType": "address",
          "name": "",
          "type": "address"
        }
      ],
      "stateMutability": "view",
      "type": "function",
      "constant": true
    },
    {
      "inputs": [
        {
          "internalType": "uint256",
          "name": "tokenId",
          "type": "uint256"
        }
      ],
      "name": "ownerOf",
      "outputs": [
        {
          "internalType": "address",
          "name": "",
          "type": "address"
        }
      ],
      "stateMutability": "view",
      "type": "function",
      "constant": true
    },
    {
      "inputs": [],
      "name": "renounceOwnership",
      "outputs": [],
      "stateMutability": "nonpayable",
      "type": "function"
    },
    {
      "inputs": [
        {
          "internalType": "address",
          "name": "from",
          "type": "address"
        },
        {
          "internalType": "address",
          "name": "to",
          "type": "address"
        },
        {
          "internalType": "uint256",
          "name": "tokenId",
          "type": "uint256"
        }
      ],
      "name": "safeTransferFrom",
      "outputs": [],
      "stateMutability": "nonpayable",
      "type": "function"
    },
    {
      "inputs": [
        {
          "internalType": "address",
          "name": "from",
          "type": "address"
        },
        {
          "internalType": "address",
          "name": "to",
          "type": "address"
        },
        {
          "internalType": "uint256",
          "name": "tokenId",
          "type": "uint256"
        },
        {
          "internalType": "bytes",
          "name": "_data",
          "type": "bytes"
        }
      ],
      "name": "safeTransferFrom",
      "outputs": [],
      "stateMutability": "nonpayable",
      "type": "function"
    },
    {
      "inputs": [
        {
          "internalType": "address",
          "name": "operator",
          "type": "address"
        },
        {
          "internalType": "bool",
          "name": "approved",
          "type": "bool"
        }
      ],
      "name": "setApprovalForAll",
      "outputs": [],
      "stateMutability": "nonpayable",
      "type": "function"
    },
    {
      "inputs": [
        {
          "internalType": "bytes4",
          "name": "interfaceId",
          "type": "bytes4"
        }
      ],
      "name": "supportsInterface",
      "outputs": [
        {
          "internalType": "bool",
          "name": "",
          "type": "bool"
        }
      ],
      "stateMutability": "view",
      "type": "function",
      "constant": true
    },
    {
      "inputs": [],
      "name": "symbol",
      "outputs": [
        {
          "internalType": "string",
          "name": "",
          "type": "string"
        }
      ],
      "stateMutability": "view",
      "type": "function",
      "constant": true
    },
    {
      "inputs": [
        {
          "internalType": "uint256",
          "name": "",
          "type": "uint256"
        }
      ],
      "name": "tokenIdToUri",
      "outputs": [
        {
          "internalType": "string",
          "name": "",
          "type": "string"
        }
      ],
      "stateMutability": "view",
      "type": "function",
      "constant": true
    },
    {
      "inputs": [
        {
          "internalType": "address",
          "name": "from",
          "type": "address"
        },
        {
          "internalType": "address",
          "name": "to",
          "type": "address"
        },
        {
          "internalType": "uint256",
          "name": "tokenId",
          "type": "uint256"
        }
      ],
      "name": "transferFrom",
      "outputs": [],
      "stateMutability": "nonpayable",
      "type": "function"
    },
    {
      "inputs": [
        {
          "internalType": "address",
          "name": "newOwner",
          "type": "address"
        }
      ],
      "name": "transferOwnership",
      "outputs": [],
      "stateMutability": "nonpayable",
      "type": "function"
    },
    {
      "inputs": [],
      "name": "totalSupply",
      "outputs": [
        {
          "internalType": "uint256",
          "name": "",
          "type": "uint256"
        }
      ],
      "stateMutability": "view",
      "type": "function",
      "constant": true
    },
    {
      "inputs": [
        {
          "internalType": "string",
          "name": "tokenUri",
          "type": "string"
        }
      ],
      "name": "mintToken",
      "outputs": [
        {
          "internalType": "uint256",
          "name": "",
          "type": "uint256"
        }
      ],
      "stateMutability": "nonpayable",
      "type": "function"
    },
    {
      "inputs": [
        {
          "internalType": "string",
          "name": "baseURI",
          "type": "string"
        }
      ],
      "name": "_setBaseURI",
      "outputs": [],
      "stateMutability": "nonpayable",
      "type": "function"
    },
    {
      "inputs": [
        {
          "internalType": "uint256",
          "name": "tokenId",
          "type": "uint256"
        }
      ],
      "name": "tokenURI",
      "outputs": [
        {
          "internalType": "string",
          "name": "",
          "type": "string"
        }
      ],
      "stateMutability": "view",
      "type": "function",
      "constant": true
    }
  ],
  "bytecode": "0x60806040523480156200001157600080fd5b506040518060400160405280600981526020017f536561446f6773763100000000000000000000000000000000000000000000008152506040518060400160405280600881526020017f534541444f475331000000000000000000000000000000000000000000000000815250816000908051906020019062000096929190620002c1565b508060019080519060200190620000af929190620002c1565b505050620000d2620000c66200011e60201b60201c565b6200012660201b60201c565b620001186040518060400160405280601581526020017f68747470733a2f2f697066732e696f2f697066732f0000000000000000000000815250620001ec60201b60201c565b62000459565b600033905090565b6000600660009054906101000a900473ffffffffffffffffffffffffffffffffffffffff16905081600660006101000a81548173ffffffffffffffffffffffffffffffffffffffff021916908373ffffffffffffffffffffffffffffffffffffffff1602179055508173ffffffffffffffffffffffffffffffffffffffff168173ffffffffffffffffffffffffffffffffffffffff167f8be0079c531659141344cd1fd0a4f28419497f9722a3daafe3b4186f6b6457e060405160405180910390a35050565b620001fc6200011e60201b60201c565b73ffffffffffffffffffffffffffffffffffffffff16620002226200029760201b60201c565b73ffffffffffffffffffffffffffffffffffffffff16146200027b576040517f08c379a00000000000000000000000000000000000000000000000000000000081526004016200027290620003d2565b60405180910390fd5b806009908051906020019062000293929190620002c1565b5050565b6000600660009054906101000a900473ffffffffffffffffffffffffffffffffffffffff16905090565b828054620002cf9062000423565b90600052602060002090601f016020900481019282620002f357600085556200033f565b82601f106200030e57805160ff19168380011785556200033f565b828001600101855582156200033f579182015b828111156200033e57825182559160200191906001019062000321565b5b5090506200034e919062000352565b5090565b5b808211156200036d57600081600090555060010162000353565b5090565b600082825260208201905092915050565b7f4f776e61626c653a2063616c6c6572206973206e6f7420746865206f776e6572600082015250565b6000620003ba60208362000371565b9150620003c78262000382565b602082019050919050565b60006020820190508181036000830152620003ed81620003ab565b9050919050565b7f4e487b7100000000000000000000000000000000000000000000000000000000600052602260045260246000fd5b600060028204905060018216806200043c57607f821691505b60208210811415620004535762000452620003f4565b5b50919050565b612d9780620004696000396000f3fe608060405234801561001057600080fd5b506004361061012c5760003560e01c80636352211e116100ad578063a22cb46511610071578063a22cb46514610343578063b88d4fde1461035f578063c87b56dd1461037b578063e985e9c5146103ab578063f2fde38b146103db5761012c565b80636352211e1461029d57806370a08231146102cd578063715018a6146102fd5780638da5cb5b1461030757806395d89b41146103255761012c565b806318160ddd116100f457806318160ddd146101fb57806323b872dd1461021957806331b5b9071461023557806333eba49a1461025157806342842e0e146102815761012c565b806301ffc9a71461013157806306fdde0314610161578063081812fc1461017f578063095ea7b3146101af578063119d209a146101cb575b600080fd5b61014b60048036038101906101469190611bd8565b6103f7565b6040516101589190611c20565b60405180910390f35b6101696104d9565b6040516101769190611cd4565b60405180910390f35b61019960048036038101906101949190611d2c565b61056b565b6040516101a69190611d9a565b60405180910390f35b6101c960048036038101906101c49190611de1565b6105f0565b005b6101e560048036038101906101e09190611d2c565b610708565b6040516101f29190611cd4565b60405180910390f35b6102036107a8565b6040516102109190611e30565b60405180910390f35b610233600480360381019061022e9190611e4b565b6107c5565b005b61024f600480360381019061024a9190611fd3565b610825565b005b61026b60048036038101906102669190611fd3565b6108bb565b6040516102789190611e30565b60405180910390f35b61029b60048036038101906102969190611e4b565b6109da565b005b6102b760048036038101906102b29190611d2c565b6109fa565b6040516102c49190611d9a565b60405180910390f35b6102e760048036038101906102e2919061201c565b610aac565b6040516102f49190611e30565b60405180910390f35b610305610b64565b005b61030f610bec565b60405161031c9190611d9a565b60405180910390f35b61032d610c16565b60405161033a9190611cd4565b60405180910390f35b61035d60048036038101906103589190612075565b610ca8565b005b61037960048036038101906103749190612156565b610cbe565b005b61039560048036038101906103909190611d2c565b610d20565b6040516103a29190611cd4565b60405180910390f35b6103c560048036038101906103c091906121d9565b610dd2565b6040516103d29190611c20565b60405180910390f35b6103f560048036038101906103f0919061201c565b610e66565b005b60007f80ac58cd000000000000000000000000000000000000000000000000000000007bffffffffffffffffffffffffffffffffffffffffffffffffffffffff1916827bffffffffffffffffffffffffffffffffffffffffffffffffffffffff191614806104c257507f5b5e139f000000000000000000000000000000000000000000000000000000007bffffffffffffffffffffffffffffffffffffffffffffffffffffffff1916827bffffffffffffffffffffffffffffffffffffffffffffffffffffffff1916145b806104d257506104d182610f5e565b5b9050919050565b6060600080546104e890612248565b80601f016020809104026020016040519081016040528092919081815260200182805461051490612248565b80156105615780601f1061053657610100808354040283529160200191610561565b820191906000526020600020905b81548152906001019060200180831161054457829003601f168201915b5050505050905090565b600061057682610fc8565b6105b5576040517f08c379a00000000000000000000000000000000000000000000000000000000081526004016105ac906122ec565b60405180910390fd5b6004600083815260200190815260200160002060009054906101000a900473ffffffffffffffffffffffffffffffffffffffff169050919050565b60006105fb826109fa565b90508073ffffffffffffffffffffffffffffffffffffffff168373ffffffffffffffffffffffffffffffffffffffff16141561066c576040517f08c379a00000000000000000000000000000000000000000000000000000000081526004016106639061237e565b60405180910390fd5b8073ffffffffffffffffffffffffffffffffffffffff1661068b611034565b73ffffffffffffffffffffffffffffffffffffffff1614806106ba57506106b9816106b4611034565b610dd2565b5b6106f9576040517f08c379a00000000000000000000000000000000000000000000000000000000081526004016106f090612410565b60405180910390fd5b610703838361103c565b505050565b6008602052806000526040600020600091509050805461072790612248565b80601f016020809104026020016040519081016040528092919081815260200182805461075390612248565b80156107a05780601f10610775576101008083540402835291602001916107a0565b820191906000526020600020905b81548152906001019060200180831161078357829003601f168201915b505050505081565b600060016107b660076110f5565b6107c0919061245f565b905090565b6107d66107d0611034565b82611103565b610815576040517f08c379a000000000000000000000000000000000000000000000000000000000815260040161080c90612505565b60405180910390fd5b6108208383836111e1565b505050565b61082d611034565b73ffffffffffffffffffffffffffffffffffffffff1661084b610bec565b73ffffffffffffffffffffffffffffffffffffffff16146108a1576040517f08c379a000000000000000000000000000000000000000000000000000000000815260040161089890612571565b60405180910390fd5b80600990805190602001906108b7929190611ac9565b5050565b60006108c5611034565b73ffffffffffffffffffffffffffffffffffffffff166108e3610bec565b73ffffffffffffffffffffffffffffffffffffffff1614610939576040517f08c379a000000000000000000000000000000000000000000000000000000000815260040161093090612571565b60405180910390fd5b600061094560076110f5565b9050610951338261143d565b82600860008381526020019081526020016000209080519060200190610978929190611ac9565b50610983600761145b565b3373ffffffffffffffffffffffffffffffffffffffff167f0f6798a560793a54c3bcfe86a93cde1e73087d944c0ea20544137d4121396885826040516109c99190611e30565b60405180910390a280915050919050565b6109f583838360405180602001604052806000815250610cbe565b505050565b6000806002600084815260200190815260200160002060009054906101000a900473ffffffffffffffffffffffffffffffffffffffff169050600073ffffffffffffffffffffffffffffffffffffffff168173ffffffffffffffffffffffffffffffffffffffff161415610aa3576040517f08c379a0000000000000000000000000000000000000000000000000000000008152600401610a9a90612603565b60405180910390fd5b80915050919050565b60008073ffffffffffffffffffffffffffffffffffffffff168273ffffffffffffffffffffffffffffffffffffffff161415610b1d576040517f08c379a0000000000000000000000000000000000000000000000000000000008152600401610b1490612695565b60405180910390fd5b600360008373ffffffffffffffffffffffffffffffffffffffff1673ffffffffffffffffffffffffffffffffffffffff168152602001908152602001600020549050919050565b610b6c611034565b73ffffffffffffffffffffffffffffffffffffffff16610b8a610bec565b73ffffffffffffffffffffffffffffffffffffffff1614610be0576040517f08c379a0000000000000000000000000000000000000000000000000000000008152600401610bd790612571565b60405180910390fd5b610bea6000611471565b565b6000600660009054906101000a900473ffffffffffffffffffffffffffffffffffffffff16905090565b606060018054610c2590612248565b80601f0160208091040260200160405190810160405280929190818152602001828054610c5190612248565b8015610c9e5780601f10610c7357610100808354040283529160200191610c9e565b820191906000526020600020905b815481529060010190602001808311610c8157829003601f168201915b5050505050905090565b610cba610cb3611034565b8383611537565b5050565b610ccf610cc9611034565b83611103565b610d0e576040517f08c379a0000000000000000000000000000000000000000000000000000000008152600401610d0590612505565b60405180910390fd5b610d1a848484846116a4565b50505050565b6060610d2b82610fc8565b610d6a576040517f08c379a0000000000000000000000000000000000000000000000000000000008152600401610d6190612727565b60405180910390fd5b600060098054610d7990612248565b905011610d955760405180602001604052806000815250610dcb565b600960086000848152602001908152602001600020604051602001610dbb9291906127e6565b6040516020818303038152906040525b9050919050565b6000600560008473ffffffffffffffffffffffffffffffffffffffff1673ffffffffffffffffffffffffffffffffffffffff16815260200190815260200160002060008373ffffffffffffffffffffffffffffffffffffffff1673ffffffffffffffffffffffffffffffffffffffff16815260200190815260200160002060009054906101000a900460ff16905092915050565b610e6e611034565b73ffffffffffffffffffffffffffffffffffffffff16610e8c610bec565b73ffffffffffffffffffffffffffffffffffffffff1614610ee2576040517f08c379a0000000000000000000000000000000000000000000000000000000008152600401610ed990612571565b60405180910390fd5b600073ffffffffffffffffffffffffffffffffffffffff168173ffffffffffffffffffffffffffffffffffffffff161415610f52576040517f08c379a0000000000000000000000000000000000000000000000000000000008152600401610f499061287c565b60405180910390fd5b610f5b81611471565b50565b60007f01ffc9a7000000000000000000000000000000000000000000000000000000007bffffffffffffffffffffffffffffffffffffffffffffffffffffffff1916827bffffffffffffffffffffffffffffffffffffffffffffffffffffffff1916149050919050565b60008073ffffffffffffffffffffffffffffffffffffffff166002600084815260200190815260200160002060009054906101000a900473ffffffffffffffffffffffffffffffffffffffff1673ffffffffffffffffffffffffffffffffffffffff1614159050919050565b600033905090565b816004600083815260200190815260200160002060006101000a81548173ffffffffffffffffffffffffffffffffffffffff021916908373ffffffffffffffffffffffffffffffffffffffff160217905550808273ffffffffffffffffffffffffffffffffffffffff166110af836109fa565b73ffffffffffffffffffffffffffffffffffffffff167f8c5be1e5ebec7d5bd14f71427d1e84f3dd0314c0f7b2291e5b200ac8c7c3b92560405160405180910390a45050565b600081600001549050919050565b600061110e82610fc8565b61114d576040517f08c379a00000000000000000000000000000000000000000000000000000000081526004016111449061290e565b60405180910390fd5b6000611158836109fa565b90508073ffffffffffffffffffffffffffffffffffffffff168473ffffffffffffffffffffffffffffffffffffffff1614806111c757508373ffffffffffffffffffffffffffffffffffffffff166111af8461056b565b73ffffffffffffffffffffffffffffffffffffffff16145b806111d857506111d78185610dd2565b5b91505092915050565b8273ffffffffffffffffffffffffffffffffffffffff16611201826109fa565b73ffffffffffffffffffffffffffffffffffffffff1614611257576040517f08c379a000000000000000000000000000000000000000000000000000000000815260040161124e906129a0565b60405180910390fd5b600073ffffffffffffffffffffffffffffffffffffffff168273ffffffffffffffffffffffffffffffffffffffff1614156112c7576040517f08c379a00000000000000000000000000000000000000000000000000000000081526004016112be90612a32565b60405180910390fd5b6112d2838383611700565b6112dd60008261103c565b6001600360008573ffffffffffffffffffffffffffffffffffffffff1673ffffffffffffffffffffffffffffffffffffffff168152602001908152602001600020600082825461132d919061245f565b925050819055506001600360008473ffffffffffffffffffffffffffffffffffffffff1673ffffffffffffffffffffffffffffffffffffffff16815260200190815260200160002060008282546113849190612a52565b92505081905550816002600083815260200190815260200160002060006101000a81548173ffffffffffffffffffffffffffffffffffffffff021916908373ffffffffffffffffffffffffffffffffffffffff160217905550808273ffffffffffffffffffffffffffffffffffffffff168473ffffffffffffffffffffffffffffffffffffffff167fddf252ad1be2c89b69c2b068fc378daa952ba7f163c4a11628f55a4df523b3ef60405160405180910390a4505050565b611457828260405180602001604052806000815250611705565b5050565b6001816000016000828254019250508190555050565b6000600660009054906101000a900473ffffffffffffffffffffffffffffffffffffffff16905081600660006101000a81548173ffffffffffffffffffffffffffffffffffffffff021916908373ffffffffffffffffffffffffffffffffffffffff1602179055508173ffffffffffffffffffffffffffffffffffffffff168173ffffffffffffffffffffffffffffffffffffffff167f8be0079c531659141344cd1fd0a4f28419497f9722a3daafe3b4186f6b6457e060405160405180910390a35050565b8173ffffffffffffffffffffffffffffffffffffffff168373ffffffffffffffffffffffffffffffffffffffff1614156115a6576040517f08c379a000000000000000000000000000000000000000000000000000000000815260040161159d90612af4565b60405180910390fd5b80600560008573ffffffffffffffffffffffffffffffffffffffff1673ffffffffffffffffffffffffffffffffffffffff16815260200190815260200160002060008473ffffffffffffffffffffffffffffffffffffffff1673ffffffffffffffffffffffffffffffffffffffff16815260200190815260200160002060006101000a81548160ff0219169083151502179055508173ffffffffffffffffffffffffffffffffffffffff168373ffffffffffffffffffffffffffffffffffffffff167f17307eab39ab6107e8899845ad3d59bd9653f200f220920489ca2b5937696c31836040516116979190611c20565b60405180910390a3505050565b6116af8484846111e1565b6116bb84848484611760565b6116fa576040517f08c379a00000000000000000000000000000000000000000000000000000000081526004016116f190612b86565b60405180910390fd5b50505050565b505050565b61170f83836118e8565b61171c6000848484611760565b61175b576040517f08c379a000000000000000000000000000000000000000000000000000000000815260040161175290612b86565b60405180910390fd5b505050565b60006117818473ffffffffffffffffffffffffffffffffffffffff16611ab6565b156118db578373ffffffffffffffffffffffffffffffffffffffff1663150b7a026117aa611034565b8786866040518563ffffffff1660e01b81526004016117cc9493929190612bfb565b6020604051808303816000875af192505050801561180857506040513d601f19601f820116820180604052508101906118059190612c5c565b60015b61188b573d8060008114611838576040519150601f19603f3d011682016040523d82523d6000602084013e61183d565b606091505b50600081511415611883576040517f08c379a000000000000000000000000000000000000000000000000000000000815260040161187a90612b86565b60405180910390fd5b805181602001fd5b63150b7a0260e01b7bffffffffffffffffffffffffffffffffffffffffffffffffffffffff1916817bffffffffffffffffffffffffffffffffffffffffffffffffffffffff1916149150506118e0565b600190505b949350505050565b600073ffffffffffffffffffffffffffffffffffffffff168273ffffffffffffffffffffffffffffffffffffffff161415611958576040517f08c379a000000000000000000000000000000000000000000000000000000000815260040161194f90612cd5565b60405180910390fd5b61196181610fc8565b156119a1576040517f08c379a000000000000000000000000000000000000000000000000000000000815260040161199890612d41565b60405180910390fd5b6119ad60008383611700565b6001600360008473ffffffffffffffffffffffffffffffffffffffff1673ffffffffffffffffffffffffffffffffffffffff16815260200190815260200160002060008282546119fd9190612a52565b92505081905550816002600083815260200190815260200160002060006101000a81548173ffffffffffffffffffffffffffffffffffffffff021916908373ffffffffffffffffffffffffffffffffffffffff160217905550808273ffffffffffffffffffffffffffffffffffffffff16600073ffffffffffffffffffffffffffffffffffffffff167fddf252ad1be2c89b69c2b068fc378daa952ba7f163c4a11628f55a4df523b3ef60405160405180910390a45050565b600080823b905060008111915050919050565b828054611ad590612248565b90600052602060002090601f016020900481019282611af75760008555611b3e565b82601f10611b1057805160ff1916838001178555611b3e565b82800160010185558215611b3e579182015b82811115611b3d578251825591602001919060010190611b22565b5b509050611b4b9190611b4f565b5090565b5b80821115611b68576000816000905550600101611b50565b5090565b6000604051905090565b600080fd5b600080fd5b60007fffffffff0000000000000000000000000000000000000000000000000000000082169050919050565b611bb581611b80565b8114611bc057600080fd5b50565b600081359050611bd281611bac565b92915050565b600060208284031215611bee57611bed611b76565b5b6000611bfc84828501611bc3565b91505092915050565b60008115159050919050565b611c1a81611c05565b82525050565b6000602082019050611c356000830184611c11565b92915050565b600081519050919050565b600082825260208201905092915050565b60005b83811015611c75578082015181840152602081019050611c5a565b83811115611c84576000848401525b50505050565b6000601f19601f8301169050919050565b6000611ca682611c3b565b611cb08185611c46565b9350611cc0818560208601611c57565b611cc981611c8a565b840191505092915050565b60006020820190508181036000830152611cee8184611c9b565b905092915050565b6000819050919050565b611d0981611cf6565b8114611d1457600080fd5b50565b600081359050611d2681611d00565b92915050565b600060208284031215611d4257611d41611b76565b5b6000611d5084828501611d17565b91505092915050565b600073ffffffffffffffffffffffffffffffffffffffff82169050919050565b6000611d8482611d59565b9050919050565b611d9481611d79565b82525050565b6000602082019050611daf6000830184611d8b565b92915050565b611dbe81611d79565b8114611dc957600080fd5b50565b600081359050611ddb81611db5565b92915050565b60008060408385031215611df857611df7611b76565b5b6000611e0685828601611dcc565b9250506020611e1785828601611d17565b9150509250929050565b611e2a81611cf6565b82525050565b6000602082019050611e456000830184611e21565b92915050565b600080600060608486031215611e6457611e63611b76565b5b6000611e7286828701611dcc565b9350506020611e8386828701611dcc565b9250506040611e9486828701611d17565b9150509250925092565b600080fd5b600080fd5b7f4e487b7100000000000000000000000000000000000000000000000000000000600052604160045260246000fd5b611ee082611c8a565b810181811067ffffffffffffffff82111715611eff57611efe611ea8565b5b80604052505050565b6000611f12611b6c565b9050611f1e8282611ed7565b919050565b600067ffffffffffffffff821115611f3e57611f3d611ea8565b5b611f4782611c8a565b9050602081019050919050565b82818337600083830152505050565b6000611f76611f7184611f23565b611f08565b905082815260208101848484011115611f9257611f91611ea3565b5b611f9d848285611f54565b509392505050565b600082601f830112611fba57611fb9611e9e565b5b8135611fca848260208601611f63565b91505092915050565b600060208284031215611fe957611fe8611b76565b5b600082013567ffffffffffffffff81111561200757612006611b7b565b5b61201384828501611fa5565b91505092915050565b60006020828403121561203257612031611b76565b5b600061204084828501611dcc565b91505092915050565b61205281611c05565b811461205d57600080fd5b50565b60008135905061206f81612049565b92915050565b6000806040838503121561208c5761208b611b76565b5b600061209a85828601611dcc565b92505060206120ab85828601612060565b9150509250929050565b600067ffffffffffffffff8211156120d0576120cf611ea8565b5b6120d982611c8a565b9050602081019050919050565b60006120f96120f4846120b5565b611f08565b90508281526020810184848401111561211557612114611ea3565b5b612120848285611f54565b509392505050565b600082601f83011261213d5761213c611e9e565b5b813561214d8482602086016120e6565b91505092915050565b600080600080608085870312156121705761216f611b76565b5b600061217e87828801611dcc565b945050602061218f87828801611dcc565b93505060406121a087828801611d17565b925050606085013567ffffffffffffffff8111156121c1576121c0611b7b565b5b6121cd87828801612128565b91505092959194509250565b600080604083850312156121f0576121ef611b76565b5b60006121fe85828601611dcc565b925050602061220f85828601611dcc565b9150509250929050565b7f4e487b7100000000000000000000000000000000000000000000000000000000600052602260045260246000fd5b6000600282049050600182168061226057607f821691505b6020821081141561227457612273612219565b5b50919050565b7f4552433732313a20617070726f76656420717565727920666f72206e6f6e657860008201527f697374656e7420746f6b656e0000000000000000000000000000000000000000602082015250565b60006122d6602c83611c46565b91506122e18261227a565b604082019050919050565b60006020820190508181036000830152612305816122c9565b9050919050565b7f4552433732313a20617070726f76616c20746f2063757272656e74206f776e6560008201527f7200000000000000000000000000000000000000000000000000000000000000602082015250565b6000612368602183611c46565b91506123738261230c565b604082019050919050565b600060208201905081810360008301526123978161235b565b9050919050565b7f4552433732313a20617070726f76652063616c6c6572206973206e6f74206f7760008201527f6e6572206e6f7220617070726f76656420666f7220616c6c0000000000000000602082015250565b60006123fa603883611c46565b91506124058261239e565b604082019050919050565b60006020820190508181036000830152612429816123ed565b9050919050565b7f4e487b7100000000000000000000000000000000000000000000000000000000600052601160045260246000fd5b600061246a82611cf6565b915061247583611cf6565b92508282101561248857612487612430565b5b828203905092915050565b7f4552433732313a207472616e736665722063616c6c6572206973206e6f74206f60008201527f776e6572206e6f7220617070726f766564000000000000000000000000000000602082015250565b60006124ef603183611c46565b91506124fa82612493565b604082019050919050565b6000602082019050818103600083015261251e816124e2565b9050919050565b7f4f776e61626c653a2063616c6c6572206973206e6f7420746865206f776e6572600082015250565b600061255b602083611c46565b915061256682612525565b602082019050919050565b6000602082019050818103600083015261258a8161254e565b9050919050565b7f4552433732313a206f776e657220717565727920666f72206e6f6e657869737460008201527f656e7420746f6b656e0000000000000000000000000000000000000000000000602082015250565b60006125ed602983611c46565b91506125f882612591565b604082019050919050565b6000602082019050818103600083015261261c816125e0565b9050919050565b7f4552433732313a2062616c616e636520717565727920666f7220746865207a6560008201527f726f206164647265737300000000000000000000000000000000000000000000602082015250565b600061267f602a83611c46565b915061268a82612623565b604082019050919050565b600060208201905081810360008301526126ae81612672565b9050919050565b7f4552433732314d657461646174613a2055524920717565727920666f72206e6f60008201527f6e6578697374656e7420746f6b656e0000000000000000000000000000000000602082015250565b6000612711602f83611c46565b915061271c826126b5565b604082019050919050565b6000602082019050818103600083015261274081612704565b9050919050565b600081905092915050565b60008190508160005260206000209050919050565b6000815461277481612248565b61277e8186612747565b9450600182166000811461279957600181146127aa576127dd565b60ff198316865281860193506127dd565b6127b385612752565b60005b838110156127d5578154818901526001820191506020810190506127b6565b838801955050505b50505092915050565b60006127f28285612767565b91506127fe8284612767565b91508190509392505050565b7f4f776e61626c653a206e6577206f776e657220697320746865207a65726f206160008201527f6464726573730000000000000000000000000000000000000000000000000000602082015250565b6000612866602683611c46565b91506128718261280a565b604082019050919050565b6000602082019050818103600083015261289581612859565b9050919050565b7f4552433732313a206f70657261746f7220717565727920666f72206e6f6e657860008201527f697374656e7420746f6b656e0000000000000000000000000000000000000000602082015250565b60006128f8602c83611c46565b91506129038261289c565b604082019050919050565b60006020820190508181036000830152612927816128eb565b9050919050565b7f4552433732313a207472616e73666572206f6620746f6b656e2074686174206960008201527f73206e6f74206f776e0000000000000000000000000000000000000000000000602082015250565b600061298a602983611c46565b91506129958261292e565b604082019050919050565b600060208201905081810360008301526129b98161297d565b9050919050565b7f4552433732313a207472616e7366657220746f20746865207a65726f2061646460008201527f7265737300000000000000000000000000000000000000000000000000000000602082015250565b6000612a1c602483611c46565b9150612a27826129c0565b604082019050919050565b60006020820190508181036000830152612a4b81612a0f565b9050919050565b6000612a5d82611cf6565b9150612a6883611cf6565b9250827fffffffffffffffffffffffffffffffffffffffffffffffffffffffffffffffff03821115612a9d57612a9c612430565b5b828201905092915050565b7f4552433732313a20617070726f766520746f2063616c6c657200000000000000600082015250565b6000612ade601983611c46565b9150612ae982612aa8565b602082019050919050565b60006020820190508181036000830152612b0d81612ad1565b9050919050565b7f4552433732313a207472616e7366657220746f206e6f6e20455243373231526560008201527f63656976657220696d706c656d656e7465720000000000000000000000000000602082015250565b6000612b70603283611c46565b9150612b7b82612b14565b604082019050919050565b60006020820190508181036000830152612b9f81612b63565b9050919050565b600081519050919050565b600082825260208201905092915050565b6000612bcd82612ba6565b612bd78185612bb1565b9350612be7818560208601611c57565b612bf081611c8a565b840191505092915050565b6000608082019050612c106000830187611d8b565b612c1d6020830186611d8b565b612c2a6040830185611e21565b8181036060830152612c3c8184612bc2565b905095945050505050565b600081519050612c5681611bac565b92915050565b600060208284031215612c7257612c71611b76565b5b6000612c8084828501612c47565b91505092915050565b7f4552433732313a206d696e7420746f20746865207a65726f2061646472657373600082015250565b6000612cbf602083611c46565b9150612cca82612c89565b602082019050919050565b60006020820190508181036000830152612cee81612cb2565b9050919050565b7f4552433732313a20746f6b656e20616c7265616479206d696e74656400000000600082015250565b6000612d2b601c83611c46565b9150612d3682612cf5565b602082019050919050565b60006020820190508181036000830152612d5a81612d1e565b905091905056fea2646970667358221220b94393309c513988cd100d8a6e31e751b93b4931ab977ebd0414bc616ae96c5d64736f6c634300080a0033",
  "immutableReferences": {},
  "source": "// SPDX-License-Identifier: MIT\npragma solidity ^0.8.10;\nimport \"@openzeppelin/contracts/token/ERC721/ERC721.sol\";\nimport \"@openzeppelin/contracts/utils/Counters.sol\";\nimport \"@openzeppelin/contracts/access/Ownable.sol\";\n\ncontract Seadogs is ERC721, Ownable {\n    using Counters for Counters.Counter;\n    Counters.Counter private _nextTokenId;\n\n    mapping (uint256 => string) public tokenIdToUri;\n\n    string _baseTokenURI;\n\n     event Mint(address indexed by,  uint256 tokenId);\n\n    constructor() ERC721(\"SeaDogsv1\", \"SEADOGS1\") {\n        _setBaseURI(\"https://ipfs.io/ipfs/\");\n    }\n\n    function totalSupply() public view returns (uint256) {\n        return _nextTokenId.current() - 1;\n    }\n\n    /*\n    * Mint allowed only for the owner\n    */\n    function mintToken(string memory tokenUri) public onlyOwner() returns (uint256) {\n        uint256 tokenId =  _nextTokenId.current();\n\n        _safeMint(msg.sender, tokenId);\n\n        tokenIdToUri[tokenId] = tokenUri;\n        _nextTokenId.increment();\n\n        emit Mint(msg.sender, tokenId);\n\n        return tokenId;\n    }\n\n    function _setBaseURI(string  memory baseURI) public onlyOwner() {\n        _baseTokenURI = baseURI;\n    }\n\n    function tokenURI(uint256 tokenId) public view override returns (string memory) {\n        require(_exists(tokenId), \"ERC721Metadata: URI query for nonexistent token\");\n        return bytes(_baseTokenURI).length > 0 ? string(abi.encodePacked(_baseTokenURI, tokenIdToUri[tokenId])) : \"\";\n    }\n}\n",
  "sourcePath": "/Users/timouralmazov/work/crypto-projects/hackathons/nft.ethglobal/seadogslab/contracts/Seadogs.sol",
  "compiler": {
    "name": "solc",
    "version": "0.8.10+commit.fc410830.Emscripten.clang"
  },
  "schemaVersion": "3.4.3",
  "updatedAt": "2022-01-15T14:38:32.742Z",
  "networkType": "ethereum",
  "devdoc": {
    "kind": "dev",
    "methods": {
      "approve(address,uint256)": {
        "details": "See {IERC721-approve}."
      },
      "balanceOf(address)": {
        "details": "See {IERC721-balanceOf}."
      },
      "getApproved(uint256)": {
        "details": "See {IERC721-getApproved}."
      },
      "isApprovedForAll(address,address)": {
        "details": "See {IERC721-isApprovedForAll}."
      },
      "name()": {
        "details": "See {IERC721Metadata-name}."
      },
      "owner()": {
        "details": "Returns the address of the current owner."
      },
      "ownerOf(uint256)": {
        "details": "See {IERC721-ownerOf}."
      },
      "renounceOwnership()": {
        "details": "Leaves the contract without owner. It will not be possible to call `onlyOwner` functions anymore. Can only be called by the current owner. NOTE: Renouncing ownership will leave the contract without an owner, thereby removing any functionality that is only available to the owner."
      },
      "safeTransferFrom(address,address,uint256)": {
        "details": "See {IERC721-safeTransferFrom}."
      },
      "safeTransferFrom(address,address,uint256,bytes)": {
        "details": "See {IERC721-safeTransferFrom}."
      },
      "setApprovalForAll(address,bool)": {
        "details": "See {IERC721-setApprovalForAll}."
      },
      "supportsInterface(bytes4)": {
        "details": "See {IERC165-supportsInterface}."
      },
      "symbol()": {
        "details": "See {IERC721Metadata-symbol}."
      },
      "tokenURI(uint256)": {
        "details": "See {IERC721Metadata-tokenURI}."
      },
      "transferFrom(address,address,uint256)": {
        "details": "See {IERC721-transferFrom}."
      },
      "transferOwnership(address)": {
        "details": "Transfers ownership of the contract to a new account (`newOwner`). Can only be called by the current owner."
      }
    },
    "version": 1
  },
  "userdoc": {
    "kind": "user",
    "methods": {},
    "version": 1
  }
}